:020000040800F2
:1000000038280020CD0100084D08000841070008ED
:1000100049080008D3020008DD12000800000000B3
:10002000000000000000000000000000210C00089B
:1000300013030008000000006D090008010E00080D
:10004000E7010008D5080008E7010008E7010008FB
:10005000E7010008E7010008E7010008E7010008E0
:10006000E7010008E7010008E7010008E7010008D0
:10007000E7010008E7010008E7010008E7010008C0
:10008000E7010008E7010008E7010008E7010008B0
:10009000E7010008E7010008E701000899030008EC
:1000A000E7010008E7010008E7010008E701000890
:1000B000E7010008E7010008E7010008E701000880
:1000C000E7010008E7010008E7010008E701000870
:1000D000E7010008E7010008B1100008E701000887
:1000E000E7010008E7010008E7010008E701000850
:1000F000E7010008E7010008E7010008E701000840
:10010000E7010008E7010008E7010008E70100082F
:10011000E7010008E7010008E10E0008E701000818
:10012000E7010008E7010008E7010008E70100080F
:1001300000F002F800F03AF80AA090E8000C8244BF
:100140008344AAF10107DA4501D100F02FF8AFF29C
:10015000090EBAE80F0013F0010F18BFFB1A43F0A5
:1001600001031847B0130000D0130000103A24BF59
:1001700078C878C1FAD8520724BF30C830C144BF0C
:1001800004680C607047000000230024002500264E
:10019000103A28BF78C1FBD8520728BF30C148BFEA
:1001A0000B6070471FB51FBD10B510BD00F058F8AB
:1001B0001146FFF7F7FF01F0CDF800F076F803B431
:1001C000FFF7F2FF03BC00F07DF80000094880470C
:1001D00009480047FEE7FEE7FEE7FEE7FEE7FEE729
:1001E000FEE7FEE7FEE7FEE704480549054A064B41
:1001F00070470000810E00083101000838220020FD
:100200003828002038240020382400204FF0000235
:1002100000B5134694469646203922BFA0E80C50FC
:10022000A0E80C50B1F12001BFF4F7AF090728BFD7
:10023000A0E80C5048BF0CC05DF804EB890028BF53
:1002400040F8042B08BF704748BF20F8022B11F07C
:10025000804F18BF00F8012B7047704770477047F8
:10026000754600F02BF8AE4605006946534620F06F
:100270000700854618B020B5FFF7B6FFBDE820405F
:100280004FF000064FF000074FF000084FF0000B52
:1002900021F00701AC46ACE8C009ACE8C009ACE805
:1002A000C009ACE8C0098D46704710B50446AFF3ED
:1002B00000802046BDE81040FFF781BF004870472E
:1002C000D421002001491820ABBEFEE72600020021
:1002D000704700BFFEE730B502460B464FF6FF7091
:1002E00011E012F8014B604000210AE000F0010427
:1002F00024B14AF2010484EA600000E040104C1C82
:10030000A1B20829F2DB1C1EA3F10105EBB2E8D172
:1003100030BD704710B5044602E001F0F9F8641EE4
:10032000002CFADC01200149087010BD14000020E7
:1003300000202CE01749095C01291ED1154912390A
:10034000095C41B9002213490C390A540121114AB0
:10035000123A115419E00F490C39095C491CCAB210
:100360000C490C390A540A5C891D095C8A420CDB71
:10037000002208490C390A5407E0002205490C39CB
:100380000A540021034A123A1154411CC8B20528EC
:10039000D0DB70476E20002010B5802000F03CF8C4
:1003A00050B3002423E0154850F82400144951F8B4
:1003B00024100844114941F82400084650F824004C
:1003C0001049884212D3E0B2012100F09FFC0B4893
:1003D00050F824000B49401A084941F824000A4803
:1003E00030F81400401C084921F81400641C032C48
:1003F000D9D3802000F00AF810BD00003C21002075
:100400003C00002040420F00A42100200149086068
:100410007047000014040140014600200022074BF1
:100420001B6803EA0102054B14331B680B4013B130
:100430000AB1012000E000207047000000040140E4
:10044000002123498279002A3AD00A4612680368BB
:100450009A430B461A600A1D126803689A430B1DE3
:100460001A60027911440A6803681A430A60184A3C
:100470000832126803689A43154B08331A601A1D34
:10048000126803689A43124B0C331A604279102A9F
:100490000ED11A1F126803681A430D4B08331A60F5
:1004A0001A1D126803681A43094B0C331A600DE0D9
:1004B0000749427911440A6803681A430A6005E053
:1004C000027911440A6803689A430A607047000081
:1004D0000004014008B54FF4E06000F0F1F9362067
:1004E0008DF8000000208DF8010004208DF8020036
:1004F00001208DF80300684600F0AAF908BD00004D
:1005000008B57F20ADF8000002208DF8020004201D
:100510008DF8030069462A4800F07AF8E020ADF82B
:10052000000002208DF8020004208DF803006946C7
:10053000244800F06DF840F22340ADF8000002209E
:100540008DF8020010208DF8030069461D4800F068
:100550005FF821211B4800F0F1F80820ADF80000F9
:1005600002208DF8020010208DF80300694616481D
:1005700000F04EF80821144800F0E0F83F20ADF8F4
:10058000000002208DF8020004208DF80300694667
:100590000E4800F03DF843F22030ADF80000022094
:1005A0008DF8020010208DF803006946074800F01E
:1005B0002FF843F22031054800F0C0F808BD0000D4
:1005C00000080140000C01400014014000180140E7
:1005D00030B500228B071C0F0F2303FA04F20B4BDC
:1005E0008C1053F824309343084C8D1044F8253078
:1005F00023468C1053F824308C07240F00FA04F49F
:100600002343024C8D1044F8253030BD08000140D2
:100610002DE9F04102460025002600200023002499
:10062000002791F803C00CF00F0591F803C00CF0FF
:10063000100CBCF1000F03D091F802C04CEA050584
:1006400091F800C0BCF1000F31D0146800202BE0FD
:100650004FF0010C0CFA00F3B1F800C00CEA0306ED
:100660009E4220D183004FF00F0C0CFA03F7BC43DD
:1006700005FA03FC4CEA040491F803C0BCF1280F0E
:1006800006D14FF0010C0CFA00FCC2F814C00AE0CD
:1006900091F803C0BCF1480F05D14FF0010C0CFAE2
:1006A00000FCC2F810C0401C0828D1D31460B1F877
:1006B00000C0BCF1FF0F34DD546800202EE000F1D3
:1006C000080C4FF0010808FA0CF3B1F800C00CEA6E
:1006D00003069E4221D183004FF00F0C0CFA03F762
:1006E000BC4305FA03FC4CEA040491F803C0BCF1D6
:1006F000280F05D100F1080C08FA0CF8C2F8148094
:1007000091F803C0BCF1480F07D100F1080C4FF07D
:10071000010808FA0CF8C2F81080401C0828CED353
:100720005460BDE8F0810246002093680B400BB195
:10073000012000E00020704741617047016170476F
:1007400000BFFEE708B50121442000F021F91C207C
:10075000ADF8000048208DF8030069460648FFF711
:1007600057FF0120ADF8000028208DF803006946EE
:100770000248FFF74DFF08BD001801400008014086
:1007800010B5044614B101202C4908702B4800789C
:10079000002837D010212A48FFF7C5FF78B108217B
:1007A0002748FFF7C0FF50B104212548FFF7BBFFE2
:1007B00028B101212348FFF7B6FF012822D1642088
:1007C000FFF7A8FD00201D49087010211C48FFF705
:1007D000AAFF08B9012010BD08211948FFF7A3FF9F
:1007E00008B90220F7E704211548FFF79CFF08B974
:1007F0000320F0E701211348FFF795FF01281BD1E3
:100800000420E8E710210E48FFF78DFF012813D1DF
:1008100008210B48FFF787FF01280DD10421084864
:10082000FFF781FF012807D101210648FFF77BFF71
:1008300010B90120014908700020CCE739000020E0
:10084000001801400008014000BFFEE770470000AB
:1008500070B5002100230F22C47804B3154C24681E
:1008600004F4E064C4F5E064210AC1F10403CA4061
:10087000447804FA03F184781440214309010E4CB2
:100880000678A155047804F01F050124AC400578D2
:100890006D11AD0005F1E025C5F8004109E00478CF
:1008A00004F01F050124AC40044D0678761145F88C
:1008B000264070BD0CED00E000E400E080E100E0C7
:1008C00002490143024A1160704700000000FA0526
:1008D0000CED00E010B54FF4807003490860000291
:1008E000FFF794FD10BD0000100C01400EB5012172
:1008F000080700F03DF8E02000F02CF8012000F09F
:1009000023F801208DF8080000208DF809008DF8EB
:100910000A0001208DF80B0002A8FFF799FF4FF4A1
:100920008030FFF773FD4FF48030009000208DF889
:10093000040008208DF8050001208DF806006846A7
:10094000FFF77EFD0EBD0000014908617047000001
:1009500000000E4201460020034A106820F0E0002B
:1009600008431060704700000070004070470000AE
:1009700029B1064AD2690243044BDA6104E0034A12
:10098000D2698243014BDA617047000000100240D7
:1009900029B1064A92690243044B9A6104E0034A72
:1009A00092698243014B9A61704700000010024037
:1009B00010B500F065FA01217D20FFF7E9FF10BDB9
:1009C00030B500210022002400232D4D6D6805F074
:1009D0000C0121B1042905D0082923D105E0294DB6
:1009E000056022E0274D05601FE0254D6D6805F488
:1009F0007012234D6D6805F48034022505EB924298
:100A00001CB9214D554305600BE01D4D6D6805F483
:100A100000351DB11C4D5543056002E0194D55438D
:100A2000056002E0174D056000BF00BF144D6D6802
:100A300005F0F0010909154D6B5C0568DD40456066
:100A40000F4D6D6805F4E061090A104D6B5C456857
:100A5000DD4085600A4D6D6805F46051C90A0B4D93
:100A60006B5C4568DD40C560054D6D6805F440412F
:100A7000890B074D6B5CC568B5FBF3F5056130BDAF
:100A80000010024000127A0000093D001C00002006
:100A90002C0000202DE9F04107460D460F4806784E
:100AA00000240020287040F6D860FFF733FC0B4884
:100AB000007886420FD176B100BF04E00848005D9F
:100AC0003855601CC4B2B442F8DB04480078287082
:100AD000002002490870BDE8F081000038000020C5
:100AE0007420002070B505460E46012013490860A9
:100AF00040F6B830FFF70EFC00240CE000BF4021A8
:100B00000F4800F01AFB0028F9D0295D0C4800F0CE
:100B1000E2FB601CC4B2B442F0DB00BF40210848D5
:100B200000F00BFB0028F9D041F65830FFF7F2FB3C
:100B30000020044908700149086070BD9C81224270
:100B4000004400403800002000B587B00121042097
:100B5000FFF71EFF01212020FFF71AFF01214804A3
:100B6000FFF706FF0420ADF8180018208DF81B00D1
:100B700003208DF81A0006A92548FFF749FD082033
:100B8000ADF8180004208DF81B0006A92048FFF7D7
:100B90003FFD8020ADF8180010208DF81B000320C9
:100BA0008DF81A0006A91B48FFF732FD4FF41650C6
:100BB00002900020ADF80C00ADF80E00ADF810006A
:100BC000ADF814000C20ADF8120002A9124800F094
:100BD00011FB26208DF8040001208DF8070002206B
:100BE0008DF8050000208DF8060001A8FFF730FE03
:100BF000012240F22551084800F0D6FA01210648AA
:100C000000F08FFA00200549086007B000BD000021
:100C10000008014000140140004400409C81224231
:100C2000704710B500F002F810BD00000CB50020B0
:100C3000019000903348006840F4803031490860EA
:100C400000BF3048006800F4003000900198401C5C
:100C50000190009818B90198B0F5A06FF1D129481A
:100C6000006800F4003010B10120009001E0002085
:100C700000900098012843D12348006840F01000FC
:100C8000214908600846006820F003000860084613
:100C9000006840F0020008601A484068194948603E
:100CA0000846406848600846406840F480604860F4
:100CB0000846406820F47C1048600846406840F4CC
:100CC000E81048600846006840F08070086000BF87
:100CD0000C48006800F000700028F9D0094840680E
:100CE00020F00300074948600846406840F00200D1
:100CF000486000BF0348406800F00C000828F9D1A4
:100D00000CBD0000001002400020024070B50546F6
:100D10000C460CB9012000E000200446092D68D2E1
:100D2000DFE805F06705101B2835424D5A0024B155
:100D300001213148FFF702FD03E001212E48FFF7B2
:100D4000FBFC56E024B102212B48FFF7F7FC03E03F
:100D500002212948FFF7F0FC4BE02CB14FF48071E1
:100D60002648FFF7EBFC04E04FF480712348FFF7BF
:100D7000E3FC3EE02CB14FF400712048FFF7DEFCAD
:100D800004E04FF400711D48FFF7D6FC31E02CB1B0
:100D90004FF480611848FFF7D1FC04E04FF4806104
:100DA0001548FFF7C9FC24E024B120211248FFF7C1
:100DB000C5FC03E020211048FFF7BEFC19E02CB170
:100DC0004FF480510D48FFF7B9FC04E04FF4805117
:100DD0000A48FFF7B1FC0CE02CB14FF40051074872
:100DE000FFF7ACFC04E04FF400510448FFF7A4FC0B
:100DF00000BF00BF70BD0000000C014000180140A2
:100E000010B500F039F910BD30B51A4800684FF43C
:100E10007A72B0FBF2F1B1F1807F01D301201DE0C5
:100E200021F07F40401E4FF0E022506150170F220A
:100E3000002807DA13071D0E0F4B00F00F04241FC4
:100E40001D5503E013071C0E0C4B1C5400BF002063
:100E50004FF0E022906107201061002008B100BF30
:100E6000FEE74FF0E020006940F001004FF0E02184
:100E7000086130BD0000002018ED00E000E400E053
:100E800010B51348006840F0010011490860084699
:100E90004068104908400E494860084600680E49FD
:100EA00008400B4908600846006820F4802008606C
:100EB0000846406820F4FE0048604FF41F00886038
:100EC000FFF7AFFE4FF000600449086010BD00005E
:100ED000001002400000FFF8FFFFF6FE08ED00E002
:100EE00010B50121114800F036F8E8B110484088EB
:100EF000401C81B20E4841800E480068401C0D49DC
:100F00000860084600681921B0FBF1F201FB1200ED
:100F100020B900F0F3FA002006490860FFF708FA4C
:100F20000121024800F008F810BD00000010004048
:100F30005C18002018000020CA430282704721B1CB
:100F4000028842F00102028004E002884FF6FE733C
:100F50001A400280704730B502460020002300246A
:100F6000158A05EA0103958905EA010413B10CB15C
:100F7000012000E0002030BD1AB183890B4383813A
:100F800002E083898B43838170470000002202883E
:100F90001D4B98420ED01D4B98420BD0B0F1804FA4
:100FA00008D01B4B984205D01A4B984202D01A4BDE
:100FB000984204D14FF68F731A404B881A43174B4F
:100FC000984207D0164B984204D04FF6FF431A4080
:100FD000CB881A4302808B8883850B8803850A4B54
:100FE00098420BD0094B984208D00E4B984205D03E
:100FF0000D4B984202D00D4B984201D10B7A0386DB
:101000000123838270470000002C0140003401401E
:101010000004004000080040000C004000100040A8
:1010200000140040004001400044014000480140DD
:101030000EB501211020FFF79BFCFFF74BFA4FF490
:101040007A70ADF8040041F61F40ADF80000694623
:101050000848FFF79BFF01210648FFF76DFF0122BB
:1010600011460448FFF788FF01210248FFF767FF98
:101070000EBD0000001000400B48006820B10A4877
:101080000068401E0849086008480068401C07497D
:101090000860084600686FF00041884202D10020D5
:1010A0000249086070470000340000203000002032
:1010B00030B58DB000251C2106A8FFF7A7F8142134
:1010C00001A8FFF7A3F840F225510E4800F042F8BE
:1010D000A8B10C4800F0FAF8C4B20B4800784028D8
:1010E00008DA0A4808490978445407480078401C3F
:1010F0000549087040F22551024800F009F80DB08A
:1011000030BD000000440040380000207420002062
:1011100001F40072B2F5007F00D100BFCA43028023
:10112000704721B1828942F40052828104E08289B1
:101130004DF6FF731A408281704702460020B1F5D8
:10114000007F00D100BF13880B400BB1012000E0ED
:101150000020704770B502460024002300250020BF
:1011600040F66A16B14200D100BFC1F3421501F04A
:101170001F03012606FA03F3012D02D1968933409D
:1011800006E0022D02D1168A334001E0968A3340F0
:101190000C12012606FA04F41688344013B10CB17F
:1011A000012000E0002070BDF0B5034600240026B9
:1011B0000025002040F66A17B94200D100BF18464A
:1011C000C1F3421401F01F06012707FA06F5012CAE
:1011D00001D10C3004E0022C01D1103000E01430B9
:1011E0001AB107682F43076002E00768AF43076042
:1011F000F0BD00002DE9F04786B005460E460024FC
:10120000A24600BFA1460027B08900B100BF2F460B
:101210002C8A4CF6FF700440F08804432C82AC8981
:101220004EF6F3100440B0883189084371890843B1
:101230000443AC81AC8A4FF6FF400440B0890443BC
:10124000AC8201A8FFF7BCFB1F48874202D1DDF842
:1012500010A001E0DDF80CA0A88900F4004040B126
:101260000AEBCA0000EB0A1031684900B0FBF1F844
:1012700007E00AEBCA0000EB0A1031688900B0FBF6
:10128000F1F86420B8FBF0F004012009642101FBAF
:101290001089A88900F4004040B1322000EBC90059
:1012A000B0FBF1F000F00700044308E0322000EB4F
:1012B00009106421B0FBF1F000F00F0004432C8111
:1012C00006B0BDE8F087000000380140014688887C
:1012D000C0F308007047CAB28280704700BFFEE7C3
:1012E0001FB501210520FFF753FB8020ADF80C004E
:1012F00003208DF80E0004208DF80F0003A9144878
:10130000FFF786F907210020FFF762F9802001909E
:1013100000208DF8080008208DF8090001208DF8C4
:101320000A0001A8FFF78CF84FF4A060FFF7C8FA95
:1013300017208DF8000002208DF8010003208DF8A1
:10134000020001208DF803006846FFF781FA1FBDF7
:101350000008014092B000BF00BF1C210BA8FEF79F
:1013600055FF1C2104A8FEF751FF00BF00BF00BFBE
:1013700000BF4FF0000800BFFFF71AFBFFF7C0F8EF
:10138000FFF756FEFFF740FDFFF7DEFB4FF4A060CE
:10139000FFF796FAFFF7AAFAFFF7D4F9FFF7A0FFD5
:1013A00080215148FFF7C8F99DE003A901A8FFF784
:1013B00071FB9DF80C0000285AD09DF80400992874
:1013C00056D19DF80C00092801DD092003909DF8F5
:1013D00005709DF82F109DF82E4061F31F249DF895
:1013E00031109DF8305061F31F25012F06D0022FD8
:1013F00007D0032F09D0042F0ED109E03B48055533
:101400000BE03B4820F8145007E03A490D5504E042
:10141000394820F8145000E000BF00BF66208DF866
:1014200010009DF805008DF811009DF806008DF85C
:1014300012009DF807008DF813009DF808008DF844
:1014400014008DF81500062104A8FEF744FFC0B271
:101450008DF81600062104A8FEF73DFF00128DF856
:1014600017000D208DF81800092104A8FFF73AFB9A
:101470000020FFF785F90646012E30D14FF0000815
:101480002AE099208DF8100002208DF811000C2020
:101490008DF8120000208DF813000C208DF8140038
:1014A00000208DF81500062104A8FEF714FFC0B235
:1014B0008DF81600062104A8FEF70DFF00128DF826
:1014C00017000D208DF81800092104A8FFF70AFB6A
:1014D00008F1010000F0FF08B8F1050FD1DB4FF46F
:1014E0007A70FEF717FF60E7001401405C100020DF
:1014F0005C1800205C0000205C08002003480068A5
:1015000080F0200001490860704700000C0C014089
:101510007047000034150008000000205C00000047
:101520006C010008901500085C000020DC2700001A
:101530008801000800A24A0400000000000000002A
:101540000102030406070809010000000000000072
:101550000000000001020304010203040607080959
:101560000204060800000000000000000001000066
:10157000401F0000204E0000204E00000000000030
:10158000000000000000000000000000000000005B
:0400000508000131BD
:00000001FF
