:020000040800F2
:10000000C825002045010008FB050008F30500088D
:10001000F7050008B1010008A31000080000000067
:1000200000000000000000000000000005090008BA
:10003000F10100080000000081060008E50A000840
:100040005F0100085F0100085F0100085F01000810
:100050005F0100085F0100085F0100085F01000800
:100060005F0100085F0100085F0100085F010008F0
:100070005F0100085F0100085F0100085F010008E0
:100080005F0100085F0100085F0100085F010008D0
:100090005F0100085F0100085F0100085D020008C1
:1000A0005F0100085F0100085F0100085F010008B0
:1000B0005F0100085F0100085F0100085F010008A0
:1000C0005F0100085F0100085F0100085F01000890
:1000D0005F010008150D00085F0100085F010008BE
:1000E0005F0100085F0100085F0100085F01000870
:1000F0005F0100085F0100085F0100085F01000860
:100100005F0100085F0100085F0100085F0100084F
:100110005F0100085F0100084D0B00085F01000847
:100120005F0100085F0100085F0100085F0100082F
:10013000DFF80CD000F02AF8004800473B11000817
:10014000C82500200648804706480047FEE7FEE72E
:10015000FEE7FEE7FEE7FEE7FEE7FEE7FEE7FEE777
:10016000ED0A000831010008D2B201E000F8012BCD
:10017000491EFBD270470022F6E710B513460A4627
:1001800004461946FFF7F0FF204610BD064C074D08
:1001900006E0E06840F0010394E807009847103457
:1001A000AC42F6D3FFF7C8FF6C1100088C110008B1
:1001B00000BFFEE730B502460B464FF6FF7011E078
:1001C00012F8014B604000210AE000F0010424B164
:1001D0004AF2010484EA600000E040104C1CA1B225
:1001E0000829F2DB1C1EA3F10105EBB2E8D130BDFA
:1001F0007047000000202CE01749095C01291ED13E
:1002000015491239095C41B9002213490C390A54C5
:100210000121114A123A115419E00F490C39095CB5
:10022000491CCAB20C490C390A540A5C891D095C84
:100230008A420CDB002208490C390A5407E00022EC
:1002400005490C390A540021034A123A1154411C41
:10025000C8B20528D0DB70476220002010B580208E
:1002600000F03CF850B3002423E0154850F8240077
:10027000144951F824100844114941F82400084653
:1002800050F824001049884212D3E0B2012100F056
:10029000AFFB0B4850F824000B49401A084941F8BD
:1002A00024000A4830F81400401C084921F81400C2
:1002B000641C032CD9D3802000F00AF810BD000084
:1002C000302100203000002040420F009821002003
:1002D00001490860704700001404014001460020F5
:1002E0000022074B1B6803EA0102054B14331B680D
:1002F0000B4013B10AB1012000E00020704700005C
:1003000000040140002123498279002A3AD00A469C
:10031000126803689A430B461A600A1D1268036844
:100320009A430B1D1A60027911440A6803681A4344
:100330000A60184A0832126803689A43154B08335A
:100340001A601A1D126803689A43124B0C331A6024
:100350004279102A0ED11A1F126803681A430D4BF6
:1003600008331A601A1D126803681A43094B0C33CC
:100370001A600DE00749427911440A6803681A437C
:100380000A6005E0027911440A6803689A430A602A
:10039000704700000004014008B54FF4E06000F031
:1003A00065F936208DF8000000208DF8010004204A
:1003B0008DF8020001208DF80300684600F01EF958
:1003C00008BD000008B57F20ADF8000002208DF8C0
:1003D000020004208DF8030069462A4800F07AF8EC
:1003E000E020ADF8000002208DF8020004208DF816
:1003F00003006946244800F06DF840F22340ADF850
:10040000000002208DF8020010208DF803006946DC
:100410001D4800F05FF821211B4800F0E8F8482053
:10042000ADF8000002208DF8020010208DF80300C6
:100430006946164800F04EF84821144800F0D7F8F5
:100440003F20ADF8000002208DF8020004208DF856
:10045000030069460E4800F03DF84FF44C50ADF8EB
:10046000000002208DF8020010208DF8030069467C
:10047000074800F02FF84FF44C51054800F0B7F84A
:1004800008BD000000080140000C014000140140BC
:100490000018014030B500228B071C0F0F2303FA10
:1004A00004F20B4B8C1053F824309343084C8D10FE
:1004B00044F8253023468C1053F824308C07240F41
:1004C00000FA04F42343024C8D1044F8253030BD6B
:1004D000080001402DE9F0410246002500260020D9
:1004E00000230024002791F803C00CF00F0591F8B9
:1004F00003C00CF0100CBCF1000F03D091F802C047
:100500004CEA050591F800C0BCF1000F31D0146829
:1005100000202BE04FF0010C0CFA00F3B1F800C002
:100520000CEA03069E4220D183004FF00F0C0CFA18
:1005300003F7BC4305FA03FC4CEA040491F803C03A
:10054000BCF1280F06D14FF0010C0CFA00FCC2F8E8
:1005500014C00AE091F803C0BCF1480F05D14FF078
:10056000010C0CFA00FCC2F810C0401C0828D1D3C2
:100570001460B1F800C0BCF1FF0F34DD54680020F6
:100580002EE000F1080C4FF0010808FA0CF3B1F866
:1005900000C00CEA03069E4221D183004FF00F0CED
:1005A0000CFA03F7BC4305FA03FC4CEA040491F887
:1005B00003C0BCF1280F05D100F1080C08FA0CF8B3
:1005C000C2F8148091F803C0BCF1480F07D100F1C4
:1005D000080C4FF0010808FA0CF8C2F81080401C13
:1005E0000828CED35460BDE8F081416170470161B5
:1005F000704700BFFEE700BFFEE7704770B50021FF
:1006000000230F22C47804B3154C246804F4E0647A
:10061000C4F5E064210AC1F10403CA40447804FA35
:1006200003F184781440214309010E4C0678A1554A
:10063000047804F01F050124AC4005786D11AD006D
:1006400005F1E025C5F8004109E0047804F01F0534
:100650000124AC40044D0678761145F8264070BD63
:100660000CED00E000E400E080E100E0024901431D
:10067000024A1160704700000000FA050CED00E02E
:100680007047000029B1064AD2690243044BDA617F
:1006900004E0034AD2698243014BDA6170470000EB
:1006A0000010024029B1064A92690243044B9A6144
:1006B00004E0034A92698243014B9A61704700004B
:1006C0000010024010B500F011FA01217C20FFF764
:1006D000E9FF10BD30B500210022002400232D4D7C
:1006E0006D6805F00C0121B1042905D0082923D13A
:1006F00005E0294D056022E0274D05601FE0254DEE
:100700006D6805F47012234D6D6805F48034022580
:1007100005EB92421CB9214D554305600BE01D4D80
:100720006D6805F400351DB11C4D5543056002E0B0
:10073000194D5543056002E0174D056000BF00BF2D
:10074000144D6D6805F0F0010909154D6B5C0568E5
:10075000DD4045600F4D6D6805F4E061090A104DFC
:100760006B5C4568DD4085600A4D6D6805F460513D
:10077000C90A0B4D6B5C4568DD40C560054D6D6871
:1007800005F44041890B074D6B5CC568B5FBF3F57B
:10079000056130BD0010024000127A0000093D00E2
:1007A000080000201800002000B587B04FF48060DA
:1007B000FFF75CFF01210420FFF774FF012188038C
:1007C000FFF770FF4FF40070ADF8180018208DF897
:1007D0001B0003208DF81A0006A91F48FFF77AFEB8
:1007E0004FF48060ADF8180004208DF81B0006A9B6
:1007F0001948FFF76FFE4FF4165002900020ADF835
:100800000C00ADF80E00ADF81000ADF814000C208F
:10081000ADF8120002A9114800F0D0FB25208DF898
:10082000040001208DF8070003208DF805008DF8E5
:10083000060001A8FFF7E2FE012240F22551074819
:1008400000F097FB0121054800F050FBE021034830
:1008500000F034FB07B000BD000801400038014043
:1008600000B585B001213020FFF71CFF01212020B9
:10087000FFF718FF01210805FFF704FF4FF4805030
:10088000ADF8100018208DF8130003208DF8120029
:1008900004A91948FFF71EFE0420ADF810008DF8DA
:1008A000130004A91548FFF715FE0120ADF810004C
:1008B00010208DF8130003208DF8120004A90F48B2
:1008C000FFF708FE4FF4E13000900020ADF804007F
:1008D000ADF80600ADF80800ADF80C000C20ADF83E
:1008E0000A006946064800F069FB0121044800F04F
:1008F000FDFA05B000BD00000010014000140140E9
:1009000000500040704710B500F002F810BD000024
:100910000CB50020019000903348006840F480300E
:100920003149086000BF3048006800F40030009092
:100930000198401C0190009818B90198B0F5A06F7B
:10094000F1D12948006800F4003010B10120009076
:1009500001E0002000900098012843D1234800685E
:1009600040F01000214908600846006820F00300AC
:1009700008600846006840F0020008601A484068B5
:10098000194948600846406848600846406840F495
:10099000806048600846406820F47C104860084643
:1009A000406840F4E81048600846006840F08070F5
:1009B000086000BF0C48006800F000700028F9D003
:1009C0000948406820F0030007494860084640682D
:1009D00040F00200486000BF0348406800F00C008F
:1009E0000828F9D10CBD0000001002400020024090
:1009F00070B505460C460CB9012000E00020044605
:100A0000092D68D2DFE805F06705101B2835424D37
:100A10005A0024B101213148FFF7E9FD03E001212B
:100A20002E48FFF7E2FD56E024B102212B48FFF7E4
:100A3000DEFD03E002212948FFF7D7FD4BE02CB192
:100A40004FF480712648FFF7D2FD04E04FF4807127
:100A50002348FFF7CAFD3EE02CB14FF40071204857
:100A6000FFF7C5FD04E04FF400711D48FFF7BDFD21
:100A700031E02CB14FF480611848FFF7B8FD04E075
:100A80004FF480611548FFF7B0FD24E024B1202128
:100A90001248FFF7ACFD03E020211048FFF7A5FD49
:100AA00019E02CB14FF480510D48FFF7A0FD04E090
:100AB0004FF480510A48FFF798FD0CE02CB14FF439
:100AC00000510748FFF793FD04E04FF4005104483C
:100AD000FFF78BFD00BF00BF70BD0000000C0140A0
:100AE0000018014010B500F0F9F810BD10B513481A
:100AF000006840F00100114908600846406810494C
:100B000008400E494860084600680E4908400B49F5
:100B100008600846006820F48020086008464068A5
:100B200020F4FE0048604FF41F008860FFF7EBFEE2
:100B30004FF000600449086010BD00000010024042
:100B40000000FFF8FFFFF6FE08ED00E010B5012100
:100B50000F4800F032F8C8B10E480088401C0D491B
:100B600008800D480068401C0B4908600846006872
:100B70000A21B0FBF1F201FB120008B900F0ECFA17
:100B8000FFF738FB0121024800F008F810BD000013
:100B9000001000400200002004000020CA4302822E
:100BA000704721B1028842F00102028004E002880D
:100BB0004FF6FE731A400280704730B5024600209F
:100BC00000230024158A05EA0103958905EA01043A
:100BD00013B10CB1012000E0002030BD1AB18389AF
:100BE0000B43838102E083898B438381704700003C
:100BF000002202881D4B98420ED01D4B98420BD00C
:100C0000B0F1804F08D01B4B984205D01A4B984248
:100C100002D01A4B984204D14FF68F731A404B887A
:100C20001A43174B984207D0164B984204D04FF600
:100C3000FF431A40CB881A4302808B8883850B8838
:100C400003850A4B98420BD0094B984208D00E4BB3
:100C5000984205D00D4B984202D00D4B984201D1DD
:100C60000B7A03860123838270470000002C014029
:100C7000003401400004004000080040000C004027
:100C800000100040001400400040014000440140BA
:100C9000004801400EB501211020FFF7F3FCFFF7DB
:100CA0007BFB4FF47A70ADF8040041F61F40ADF8BD
:100CB000000069460848FFF79BFF01210648FFF73F
:100CC0006DFF012211460448FFF788FF0121024809
:100CD000FFF767FF0EBD0000001000400B480068E2
:100CE00020B10A480068401E0849086008480068AA
:100CF000401C07490860084600686FF000418842C0
:100D000002D1002002490860704700002000002046
:100D10001C0000202DE9F04F97B01C2110A8FFF710
:100D20002AFA1C2109A8FFF726FA142104A8FFF7C4
:100D300022FA4FF0000B0020039002900190002750
:100D4000009040F22551544800F0E9F848B340F2D1
:100D50002551514800F0BBF85048006880F0400031
:100D60004E4908604C4800F095F980464C48008890
:100D700000F40040A8B94B480078012811D1484838
:100D80000088C0F30D00484901F8008044480088FD
:100D9000401C4349088008460088C72801DD002020
:100DA00008803F48008800F40040002870D03C488C
:100DB0000088C0F30D09002405E03B48005D10A940
:100DC0000855601C84B24C45F7DB9DF840A09DF8A7
:100DD00042109DF8415061F31F259DF844109DF885
:100DE000436061F31F26BAF1010F09D0BAF1020F77
:100DF00009D0BAF1030F0AD0BAF1040F0ED109E0FD
:100E00002A4846550AE02A4820F8156006E0294994
:100E10004E5503E0284820F8156000BF00BF9DF83C
:100E200040008DF810009DF841008DF811009DF8EC
:100E300042008DF812009DF843008DF813009DF8D4
:100E400044008DF8140002208DF81500062104A836
:100E5000FFF7B0F9C0B28DF81600062104A8FFF71D
:100E6000A9F900128DF8170000270CE004A8C15D55
:100E7000094800F013F900BF4021074800F042F88C
:100E80000028F9D07F1C082FF0DB002004490880DF
:100E900017B0BDE8F08F0000003801400C1401408D
:100EA000240000202C00002068200020501000208A
:100EB00050180020500000205008002001F400725B
:100EC000B2F5007F00D100BFCA430280704710B561
:100ED0000022002340F66A14A14200D100BF0A128A
:100EE00001249440A3B2DC43048010BD21B1828967
:100EF00042F40052828104E082894DF6FF731A4069
:100F00008281704702460020B1F5007F00D100BF0A
:100F100013880B400BB1012000E00020704770B532
:100F20000246002400230025002040F66A16B14244
:100F300000D100BFC1F3421501F01F03012606FADC
:100F400003F3012D02D19689334006E0022D02D130
:100F5000168A334001E0968A33400C12012606FAC5
:100F600004F41688344013B10CB1012000E00020D5
:100F700070BDF0B50346002400260025002040F691
:100F80006A17B94200D100BF1846C1F3421401F0FC
:100F90001F06012707FA06F5012C01D10C3004E0E9
:100FA000022C01D1103000E014301AB107682F4331
:100FB000076002E00768AF430760F0BD2DE9F04726
:100FC00086B005460E460024A24600BFA146002773
:100FD000B08900B100BF2F462C8A4CF6FF70044048
:100FE000F08804432C82AC894EF6F3100440B0889C
:100FF00031890843718908430443AC81AC8A4FF6B8
:10100000FF400440B0890443AC8201A8FFF762FBB3
:101010001F48874202D1DDF810A001E0DDF80CA0E6
:10102000A88900F4004040B10AEBCA0000EB0A10A6
:1010300031684900B0FBF1F807E00AEBCA0000EBA9
:101040000A1031688900B0FBF1F86420B8FBF0F0B9
:1010500004012009642101FB1089A88900F40040E3
:1010600040B1322000EBC900B0FBF1F000F0070006
:10107000044308E0322000EB09106421B0FBF1F0DA
:1010800000F00F0004432C8106B0BDE8F08700009B
:101090000038014001468888C0B27047CAB28280D9
:1010A000704700BFFEE700001FB501210520FFF7D4
:1010B000F9FA8020ADF80C0003208DF80E00042012
:1010C0008DF80F0003A91448FFF704FA0721002048
:1010D000FFF7E0F98020019000208DF8080008203B
:1010E0008DF8090001208DF80A0001A8FFF70AF920
:1010F0004FF4A060FFF7BAFA17208DF80000022025
:101100008DF8010003208DF8020001208DF8030006
:101110006846FFF773FA1FBD0008014002E008C8E7
:10112000121F08C1002AFAD170477047002001E061
:1011300001C1121F002AFBD1704700BFFFF7C2FA9E
:10114000FFF740F9FFF7A6FDFFF78AFBFFF72CFB3F
:10115000FFF7AAFF00BFFEE70348006880F0200009
:1011600001490860704700000C0C01408C11000818
:1011700000000020500000001C110008DC110008D5
:1011800050000020782500002C110008010000000C
:10119000000000000000000001020304010203043B
:1011A000060708090204060800000000000000000D
:1011B000000000000000000000000000401F0000D0
:1011C000204E0000204E0000000000000000000043
:0C11D00000000000000000000000000013
:0400000508000131BD
:00000001FF
